:020000021000EC
:10000000C8160120014901000D2E0200B948010067
:10001000B9480100B9480100B9480100B9480100D8
:100020000000000000000000000000001940010076
:10003000B948010000000000813F0100B9480100FB
:10004000BD400100BD400100BD400100BD400100B8
:10005000BD400100BD400100BD400100BD400100A8
:10006000BD400100BD400100BD400100BD40010098
:10007000BD400100BD400100BD400100BD40010088
:10008000BD400100BD400100BD400100BD40010078
:10009000BD400100BD400100BD400100BD40010068
:1000A000BD400100BD400100BD400100BD40010058
:1000B000D9650100BD400100BD400100BD40010007
:1000C000BD400100BD400100BD400100BD40010038
:1000D000BD400100BD400100BD400100BD40010028
:1000E000BD400100BD400100BD400100BD40010018
:1000F000BD400100BD400100BD400100BD40010008
:10010000BD400100BD400100BD400100BD400100F7
:10011000BD400100BD400100BD400100BD400100E7
:10012000BD400100BD400100BD400100BD400100D7
:10013000BD400100BD400100BD400100BD400100C7
:10014000BD400100000000000000000000000000B1
:10015000000000000000000000000000000000009F
:10016000000000000000000000000000000000008F
:10017000000000000000000000000000000000007F
:10018000000000000000000000000000000000006F
:10019000000000000000000000000000000000005F
:1001A000000000000000000000000000000000004F
:1001B000000000000000000000000000000000003F
:1001C000000000000000000000000000000000002F
:1001D000000000000000000000000000000000001F
:1001E000000000000000000000000000000000000F
:1001F00000000000000000000000000000000000FF
:10020000DEE61E284CBBCE8F025B00003C000000E7
:1002100018A9010001000000000001000000010019
:10022000FFFF02910000000000000000000000003D
:0C023000000000000000000000000000C2
:04023C00FFFFFFFFC2
:1002400081F0004102E000BF83F0004330B54FEA87
:1002500041044FEA430594EA050F08BF90EA020FF4
:100260001FBF54EA000C55EA020C7FEA645C7FEA87
:10027000655C00F0E2804FEA5454D4EB5555B8BFAA
:100280006D420CDD2C4480EA020281EA030382EA1B
:10029000000083EA010180EA020281EA0303362DAD
:1002A00088BF30BD11F0004F4FEA01314FF4801C80
:1002B0004CEA113102D0404261EB410113F0004F92
:1002C0004FEA03334CEA133302D0524263EB430349
:1002D00094EA050F00F0A780A4F10104D5F1200EE7
:1002E0000DDB02FA0EFC22FA05F2801841F1000142
:1002F00003FA0EF2801843FA05F359410EE0A5F116
:1003000020050EF1200E012A03FA0EFC28BF4CF046
:10031000020C43FA05F3C01851EBE37101F00045FC
:1003200007D54FF0000EDCF1000C7EEB00006EEB09
:100330000101B1F5801F1BD3B1F5001F0CD3490893
:100340005FEA30004FEA3C0C04F101044FEA4452EA
:1003500012F5800F80F09A80BCF1004F08BF5FEA71
:10036000500C50F1000041EB045141EA050130BD51
:100370005FEA4C0C404141EB0101013C28BFB1F563
:10038000801FE9D291F0000F04BF01460020B1FAAE
:1003900081F308BF2033A3F10B03B3F120020CDA81
:1003A0000C3208DD02F1140CC2F10C0201FA0CF05F
:1003B00021FA02F10CE002F11402D8BFC2F1200CC4
:1003C00001FA02F120FA0CFCDCBF41EA0C0190407A
:1003D000E41AA2BF01EB0451294330BD6FEA0404C3
:1003E0001F3C1CDA0C340EDC04F11404C4F12002AE
:1003F00020FA04F001FA02F340EA030021FA04F3C0
:1004000045EA030130BDC4F10C04C4F1200220FA16
:1004100002F001FA04F340EA0300294630BD21FA54
:1004200004F0294630BD94F0000F83F4801306BF1A
:1004300081F480110134013D4EE77FEA645C18BF0E
:100440007FEA655C29D094EA050F08BF90EA020FA5
:1004500005D054EA000C04BF1946104630BD91EA9D
:10046000030F1EBF0021002030BD5FEA545C05D1A0
:100470004000494128BF41F0004130BD14F58004DF
:100480003CBF01F5801130BD01F0004545F0FE4153
:1004900041F470014FF0000030BD7FEA645C1ABF88
:1004A000194610467FEA655C1CBF0B46024650EABF
:1004B000013406BF52EA033591EA030F41F40021EB
:1004C00030BD00BF90F0000F04BF0021704730B571
:1004D0004FF4806404F132044FF000054FF0000146
:1004E00050E700BF90F0000F04BF0021704730B507
:1004F0004FF4806404F1320410F0004548BF4042DC
:100500004FF000013EE700BF42004FEAE2014FEA30
:1005100031014FEA02701FBF12F07F4393F07F4F0B
:1005200081F06051704732F07F4208BF704793F00E
:100530007F4F04BF41F40021704730B54FF4607421
:1005400001F0004521F000411CE700BF50EA010224
:1005500008BF704730B54FF000050AE050EA0102CD
:1005600008BF704730B511F0004502D5404261EB3D
:1005700041014FF4806404F132045FEA915C3FF47E
:10058000D8AE4FF003025FEADC0C18BF03325FEA1B
:10059000DC0C18BF033202EBDC02C2F1200300FACC
:1005A00003FC20FA02F001FA03FE40EA0E0021FAF1
:1005B00002F11444BDE600BF70B54FF0FF0C4CF4DF
:1005C000E06C1CEA11541DBF1CEA135594EA0C0F91
:1005D00095EA0C0F00F0DEF82C4481EA030621EACC
:1005E0004C5123EA4C5350EA013518BF52EA033507
:1005F00041F4801143F4801338D0A0FB02CE4FF0B9
:100600000005E1FB02E506F00042E0FB03E54FF0E8
:100610000006E1FB03569CF0000F18BF4EF0010EE0
:10062000A4F1FF04B6F5007F64F5407404D25FEADC
:100630004E0E6D4146EB060642EAC62141EA55518F
:100640004FEAC52040EA5E504FEACE2EB4F1FD0CD1
:1006500088BFBCF5E06F1ED8BEF1004F08BF5FEA4F
:10066000500E50F1000041EB045170BD06F0004601
:1006700046EA010140EA020081EA0301B4EB5C04AE
:10068000C2BFD4EB0C0541EA045170BD41F48011A6
:100690004FF0000E013C00F3AB8014F1360FDEBFCB
:1006A000002001F0004170BDC4F10004203C35DAA7
:1006B0000C341BDC04F11404C4F1200500FA05F32A
:1006C00020FA04F001FA05F240EA020001F00042CB
:1006D00021F0004110EBD37021FA04F642EB060141
:1006E0005EEA430E08BF20EAD37070BDC4F10C046B
:1006F000C4F1200500FA04F320FA05F001FA04F22F
:1007000040EA020001F0004110EBD37041F100011A
:100710005EEA430E08BF20EAD37070BDC4F1200525
:1007200000FA05F24EEA020E20FA04F301FA05F28D
:1007300043EA020321FA04F001F0004121FA04F235
:1007400020EA020000EBD3705EEA430E08BF20EA05
:10075000D37070BD94F0000F0FD101F0004640003F
:1007600041EB010111F4801F08BF013CF7D041EAC1
:10077000060195F0000F18BF704703F000465200C5
:1007800043EB030313F4801F08BF013DF7D043EA96
:100790000603704794EA0C0F0CEA135518BF95EA4C
:1007A0000C0F0CD050EA410618BF52EA4306D1D1D3
:1007B00081EA030101F000414FF0000070BD50EAF2
:1007C000410606BF1046194652EA430619D094EA7C
:1007D0000C0F02D150EA013613D195EA0C0F05D166
:1007E00052EA03361CBF104619460AD181EA0301BA
:1007F00001F0004141F0FE4141F470014FF0000072
:1008000070BD41F0FE4141F4780170BD70B54FF00C
:10081000FF0C4CF4E06C1CEA11541DBF1CEA13558C
:1008200094EA0C0F95EA0C0F00F0A7F8A4EB05046E
:1008300081EA030E52EA03354FEA013100F0888065
:100840004FEA03334FF0805545EA131343EA12632E
:100850004FEA022245EA111545EA10654FEA0026E3
:100860000EF000419D4208BF964244F1FD0404F59C
:10087000407402D25B084FEA3202B61A65EB0305F8
:100880005B084FEA32024FF480104FF4002CB6EBB5
:10089000020E75EB030E22BFB61A754640EA0C0035
:1008A0005B084FEA3202B6EB020E75EB030E22BF75
:1008B000B61A754640EA5C005B084FEA3202B6EBB6
:1008C000020E75EB030E22BFB61A754640EA9C0075
:1008D0005B084FEA3202B6EB020E75EB030E22BF45
:1008E000B61A754640EADC0055EA060E18D04FEA03
:1008F000051545EA16754FEA06164FEAC30343EAA3
:1009000052734FEAC2025FEA1C1CC0D111F4801F6F
:100910000BD141EA00014FF000004FF0004CB6E768
:1009200011F4801F04BF01430020B4F1FD0C88BF07
:10093000BCF5E06F3FF6AFAEB5EB030C04BFB6EB12
:10094000020C5FEA500C50F1000041EB045170BD05
:100950000EF0004E4EEA113114EB5C04C2BFD4EB32
:100960000C0541EA045170BD41F480114FF0000EB6
:10097000013C90E645EA060E8DE60CEA135594EA32
:100980000C0F08BF95EA0C0F3FF43BAF94EA0C0F35
:100990000AD150EA01347FF434AF95EA0C0F7FF4AA
:1009A00025AF104619462CE795EA0C0F06D152EAFE
:1009B00003353FF4FDAE1046194622E750EA4106E2
:1009C00018BF52EA43067FF4C5AE50EA41047FF4F3
:1009D0000DAF52EA43057FF4EBAE12E74FEA410256
:1009E000B2F1E04324BFB3F5001CDCF1FE5C0DD98D
:1009F00001F0004C4FEAC0024CEA5070B2F1004FD7
:100A000040EB830008BF20F00100704711F0804FD9
:100A100021D113F13872BCBF01F00040704741F49E
:100A200080114FEA5252C2F11802C2F1200C10FAA2
:100A30000CF320FA02F018BF40F001004FEAC12386
:100A40004FEAD32303FA0CFC40EA0C0023FA02F32A
:100A50004FEA4303CCE77FEA625307D150EA013300
:100A60001EBF4FF0FE4040F44000704701F00040D0
:100A700040F0FE4040F40000704700BF7BB972B9FF
:100A80000029BEBF00204FF0004106E008BF00284B
:100A90001CBF6FF000414FF0FF3000F0B7B9ADF16F
:100AA000080C6DE904CE002909DB002B1ADB00F0ED
:100AB0004DF8DDF804E0DDE9022304B07047404260
:100AC00061EB4101002B1BDB00F040F8DDF804E096
:100AD000DDE9022304B0404261EB4101524263EB85
:100AE00043037047524263EB430300F02FF8DDF8F5
:100AF00004E0DDE9022304B0404261EB41017047AC
:100B0000524263EB430300F021F8DDF804E0DDE935
:100B1000022304B0524263EB4303704753B94AB90E
:100B2000002908BF00281CBF4FF0FF314FF0FF30F5
:100B300000F06CB9ADF1080C6DE904CE00F006F8D8
:100B4000DDF804E0DDE9022304B070472DE9F04749
:100B5000089D04468846002B7DD18A4217463FD91E
:100B6000B2FA82F242B1C2F120009140974024FAD9
:100B700000F0944040EA01084FEA174C230C1FFA9A
:100B800087FEB8FBFCF60CFB168106FB0EF043EA71
:100B90000143984205D9FB1802D2984200F2248101
:100BA000013E191AA3B2B1FBFCF00CFB101100FBC3
:100BB0000EFE43EA0144A64505D93C1902D2A645DA
:100BC00000F20F81013840EA0640A4EB0E04002633
:100BD0001DB1D4400023C5E900433146BDE8F0878C
:100BE00002B9FFDEB2FA82F2002A50D1CB1B4FEAE3
:100BF000174E1FFA87F80126210CB3FBFEFC0EFBF3
:100C00001C300B4608FB0CF941EA004189450AD922
:100C100079182CBF01230023894502D9002B00F04D
:100C2000D9800CF1FF3CA1EB0901A3B2B1FBFEF0AE
:100C30000EFB101108FB00F843EA0144A04505D95A
:100C40003C1902D2A04500F2C9800138A4EB080487
:100C500040EA0C40BCE78B4209D9002D00F0B1807E
:100C60000026C5E9000130463146BDE8F087B3FAF9
:100C700083F6002E46D18B42C0F0A680824240F21D
:100C8000A3803046002DA8D0C5E90048A5E79740CD
:100C9000C2F1200301FA02F04FEA174ED94024FABC
:100CA00003F31FFA87F894400343B1FBFEF01E0CD8
:100CB0000EFB101100FB08FC46EA01418C4509D9E6
:100CC00079182CBF012600268C4502D9002E00F091
:100CD00093800138A1EB0C019BB2B1FBFEF60EFB39
:100CE000161106FB08FC43EA01418C4505D9791829
:100CF00002D28C4500F28780013EA1EB0C0346EA4C
:100D0000004679E7C6F1200703FA06F402FA06FC6A
:100D100001FA06FEFA4020FA07F8F94000FA06F355
:100D2000224348EA0E044FEA12484FEA144E1FFAD3
:100D300082F9B1FBF8FA08FB1A110AFB09F04EEA36
:100D4000014E70450AD912EB0E0E2CBF0121002175
:100D5000704501D9002952D00AF1FF3AAEEB000EDE
:100D6000A4B2BEFBF8F008FB10EE00FB09F944EA60
:100D70000E4EF14505D912EB0E0E01D2F14538D8D1
:100D8000013840EA0A40AEEB090EA0FB0C89CE45C3
:100D900041464C4602D306D1434504D20138B8EB54
:100DA0000C0169EB020415B35A1A6EEB040EF24003
:100DB0000EFA07F72EFA06F300261743C5E900736B
:100DC0000BE72E46284608E7841A61EB0301012051
:100DD000884657E7ACF1020C394424E702383C441A
:100DE00034E702383C44EEE6023E3B44D9E62E4668
:100DF000F3E602389644C4E7023839446AE7AAF1B8
:100E0000020A9644AAE7023E394476E7704700BFDB
:100E100010F8012B11F8013B012A28BF9A42F7D0A4
:100E2000D01A7047034613F8012B002AFBD1181A79
:100E3000013870470000000030B48469210A01F4D1
:100E40007F4141EA1461250205F47F05294341EA07
:100E50000461914253D1027802F00702042A51D171
:100E60004278002A51D0816A0A0A02F47F4242EA9B
:100E700011620C0204F47F04224352EA01620CD195
:100E8000C16A0A0A02F47F4242EA11620C0204F4C7
:100E90007F04224352EA01623AD0C16A0A0A02F48C
:100EA0007F4242EA11620C0204F47F04224342EAC8
:100EB00001629A60806A010A01F47F4141EA10618F
:100EC000020202F47F020A4352EA00620AD417A126
:100ED000D1E90001801841F10001C3E900010020BF
:100EE00030BC704710498A4215D90DA1D1E90001E3
:100EF000801841F10001C3E900010020F0E76FF024
:100F00001500EDE76FF01500EAE76FF00F00E7E777
:100F10006FF01500E4E76FF01500E1E7AFF3008034
:100F20008081557CFFFFFFFF7F7EAA838081557CF7
:100F3000000000000000000070B584B001283FD11F
:100F40000C4615F041FB0B46234AA0FB020102FBB5
:100F50000311C30B43EA4143CD0B20686668A0FB35
:100F6000020102FB0611A268801841EBE271C41A6B
:100F700061EB050516A3D3E9002320462946FFF7B8
:100F80007DFDCDE9000112A3D3E9002320462946C7
:100F9000FFF774FD02924FF02003EFF3118583F306
:100FA0001288BFF36F8F0D4C04AB13E90F0084E878
:100FB0000F0085F31188BFF36F8F002004B070BD60
:100FC00011F0E9FF162303604FF0FF30F6E700BF92
:100FD00000CA9A3B0000000000CA9A3B48CA0020A1
:100FE00002B310B514460F291FD8072804D00928CA
:100FF00010D06FF07F0014E00F4B33F8110068B190
:10100000FFF770FA0AA3D3E90023FFF7D5FAFFF739
:10101000E5FC04E0094B33F81100F0E708482060D4
:10102000002010BD6FF0150070476FF01500F8E755
:101030007B14AE47E17A244048960200689602008D
:101040000AD7A34000B587B00023ADF815308DF85E
:101050001730194B019301230293184B039310236C
:1010600004930A238DF81430154B1B6803B3144BFB
:10107000186883685B6801A99847002300E0013382
:10108000072BF4DC0D4A32F9132007EE102AB8EED4
:10109000C77ADFED0C6AC7EE267A9FED0B7A67EE12
:1010A000877A9FED0A7AF4EEC77AF1EE10FAE6DB62
:1010B00007B05DF804FB00BF0C7E0200B4D800202E
:1010C000B0D8002000C07F44000061450080D444B7
:1010D00010B582B00DF1070200212A2008F076F940
:1010E00030BB9DF80730A3B11B4C2046FFF79AFE9A
:1010F0000346224600212A2008F026F90446E8B1DA
:10110000164810F053FD00212A2008F03FF901464F
:10111000C0B9134810F04AFD40F283730E4A002113
:101120002A2008F0E5F8044680B9204602B010BD38
:10113000044601460B4810F039FDF6E70A4810F066
:1011400035FDF2E7094810F031FDE2E701460848B5
:1011500010F02CFDE9E700BF8076020088720200E3
:10116000D07202004872020074720200A072020083
:10117000EC72020030B585B004462A2302930223A4
:1011800003930423009303AB05224FF48D7111F0F8
:10119000E5FDC0B90423009302AB01224FF48D7129
:1011A000204611F0DBFD0546A8B91E230093114B24
:1011B00002224FF48D71204611F0D0FD054688B90A
:1011C000284605B030BD054611F0E5FE01680A4825
:1011D00010F0ECFCF4E711F0DEFE0168074810F0B7
:1011E000E5FCEDE711F0D7FE0168054810F0DEFCE4
:1011F000E6E700BF6C73020018730200447302003C
:101200008C73020008B5114810F0D0FC10480DF0A6
:1012100017FB104B186058B10E4B186883681B6899
:101220000D499847014660B90C4B0122DA6008BDB0
:101230000B4810F0BBFC074B19680A4810F0B6FCCD
:10124000EAE7094810F0B2FCEEE700BFB473020011
:10125000D8730200B0D80020047E020000E00040F5
:10126000E0730200047402001074020030B599B0FB
:101270005022002103A815F004FB012305930693D7
:10128000594810F093FCFFF723FF08B119B030BDA7
:10129000564810F08BFC13F04AFA014690BB5448B4
:1012A00010F084FC534810F081FCFFF7ABFF52486C
:1012B00010F07CFC514810F079FCFFF7C3FE504859
:1012C00010F074FC17AB03AA00214E4811F05CFC2F
:1012D000E0B9179B9B694BF601325A804FF481723B
:1012E0000121084602F058FA0446B0F1FF3F14D03D
:1012F000FFF740FFA8B1179811F04AFC204611F003
:101300005BFCFEE7404810F051FCBFE711F043FEE4
:1013100001683E4810F04AFCB8E73D4810F046FC32
:10132000E9E738493B4810F041FC179B99690822CE
:10133000204611F066FC002840D140F29A23009329
:10134000354BAB220021354815F0A3FA002533496F
:101350002944002301930093AA22204611F079FC2E
:10136000002832DB0544A92DF1D929462C4810F07C
:101370001DFC00252B492944C5F50062002301937B
:101380000093204611F096FC002825DB0544002838
:10139000F0D12946244810F009FC2449214815F0D1
:1013A000DBFA38B11F49431A01330022CA542048DE
:1013B00010F0FCFB1F4810F0F9FB9CE711F0EBFD6F
:1013C00001681D4810F0F2FB95E711F0E4FD01689B
:1013D0001A4810F0EBFB8EE711F0DDFD01681848AC
:1013E00010F0E4FB87E700BF287402004874020095
:1013F0009074020094740200A8740200B874020091
:10140000D47402006C73020060740200F074020075
:10141000107502002875020058750200C4E0002013
:101420001C760200C4D80020447602004C9B0200C7
:1014300058760200647602003C75020004760200D1
:101440002C76020008B5032808D8400108300A4B62
:101450001844D0E8AF3F43B1002008BD11F09BFD18
:10146000092303604FF0FF30F7E711F094FD0923E3
:1014700003604FF0FF30F0E770E1002008B5002076
:10148000032809DC430103F10802074B1344D3E8A6
:10149000AF3F3BB10130F3E711F07DFD172303604F
:1014A0004FF0FF3008BD00BF70E1002030B40246AD
:1014B000530103F108010F4B0B44D3E8AF1F0C4657
:1014C000A9B1481ED3E8EF5F8D4204D1C3E8EC0F09
:1014D000BCF1000FF6D1EBD1012C06D1054B510127
:1014E00003EB421200205850506030BC7047084651
:1014F000FBE700BF70E1002040010830054B0344CA
:10150000D3E8EF0F421CC3E8E12F0029F8D10130E6
:10151000704700BF70E1002070B504460D461646C6
:10152000FFF790FF00280FDB2DB1084B03EB4413AE
:101530005B68AB4203D16401044B185970BD11F0D4
:101540002AFD06600020F9E70020F7E770E100209F
:1015500070B504460E461546FFF774FF002810DBF1
:10156000094B03EB44135B68336035B1630103F14E
:101570000802054B134404332B606401024B1859D5
:1015800070BD0020FCE700BF70E1002010B54FF0F7
:10159000FF324FF0FF330E480DF04EFDFFF76EFFA8
:1015A000041E04DA0A480DF0D1FD204610BD204685
:1015B000FFF7A2FF0748630100EB44110022C2506D
:1015C0004A6008331844043014F026FCEAE700BFF0
:1015D00018C8002070E1002038B503461046094ABB
:1015E0005D0102EB43145151606050B1C26842B1D9
:1015F0002B460833034A1344043340F2051210F01B
:1016000008FA38BD70E1002008B50B6801330B60A3
:10161000014B1B68984708BDE0C50020014B1860CE
:10162000704700BFE0C5002000B583B002460B46FE
:101630000021019101A9034800F0E0FB03B05DF82F
:1016400004FB00BF0916010010B584B004460190E8
:1016500002910021039101A9054800F0CFFB039BF3
:10166000029A934201DA0022E254039804B010BDBA
:101670007B1B02002DE9F04383B004460846154663
:10168000238B13F0080F05D103F007060023009306
:10169000019369E0012909D043F02003238385F3F6
:1016A0001188BFF36F8F03B0BDE8F08343F01003E0
:1016B0002383F4E7204610F0BCFA57E0D4F81490E6
:1016C0004A466946204610F0CDFA00275AE02369C1
:1016D0001F680621204610F085FA4FF0000951E0FE
:1016E00023695F680421204610F07CFA4FF000095E
:1016F00048E023699F680521204610F073FA4FF0F7
:1017000000093FE0002246E0002244E043F00803E5
:10171000238385F31188BFF36F8F002944D1009B89
:101720002BB14B4642466946204610F011FB17B1DB
:1017300025492046B8474FF02003EFF3118583F386
:101740001288BFF36F8F238B23F008032383238B2F
:1017500013F0100F2ED023F0100323830120268BCB
:1017600006F0070600289AD00228A3D0002896D0B9
:101770000128A3D00328AAD00428B1D00528B8D0C6
:101780000027B946238B03F00708B045BAD0A268FA
:10179000002AB9D001221146002AB7D1009A002AA6
:1017A000B4D1002FB2D1D2E74A464146204610F0CC
:1017B00021FAB4E713F0200F04D023F02003238391
:1017C0000220CCE70020CAE77F1D02002DE9F84384
:1017D00016461F46022E8CBF002301230022B0EBC9
:1017E000030861EB0209B8F1000F79F100034EDB49
:1017F0004FF4C872002340464946FFF73FF92B4B90
:1018000003FB0088022E4ED96FF00202164406EB4D
:10181000C60606EB06130233254EA6FB032307EB91
:1018200093074FEA980340F26D1202FB0832214BF6
:10183000A3FB0838A2EB58184744CB00C20043EA88
:101840005076131846EB0102160146EA13764FEA6A
:10185000031C32461CEB000341EB0202160146EA70
:1018600013764FEA031CBCEB000366EB0102910107
:1018700041EA93619801C41A61EB0205E41945F14C
:1018800000050D48201845F1FF31BDE8F8836FF4DD
:10189000C7704FF4C872002318EB000049F1FF3104
:1018A000FFF7ECF8ABE70922B0E700BF70FEFFFFDF
:1018B000CDCCCCCC1F85EB519405F5FF10B404467C
:1018C0000268002013780849595C11F0040F06D013
:1018D00000EB8000013203EB40003038F2E7226079
:1018E0005DF8044B704700BF97A302002DE9F04F4D
:1018F00083B004460D4601929A46DDF83080D378D5
:10190000314A13F802B00BF0030B6F2B0FD006D93E
:10191000702B0FD0782B10D14FF0100923E0582BEB
:1019200002D04FF00A091EE04FF010091BE04FF003
:10193000080918E04FF0100915E04FF00A0912E00D
:10194000D2B23032D2B208F8012D32463B462046A0
:101950002946FFF7E3F8BD4208BFB44218D3D0458B
:1019600016D904460D464E4600274A463B462046B9
:101970002946FFF7D3F8092AE2D9BBF1010F03D0BA
:10198000D2B25732D2B2DEE7D2B23732D2B2DAE7CF
:10199000019B1B7813F0200F05D0B9F1080F06D07A
:1019A000B9F1100F09D0404603B0BDE8F08F019A9D
:1019B000937843F008039370F5E7019A937843F026
:1019C00010039370EFE700BF97A302002DE9F04FDB
:1019D00089B092461D46002871F1000308DB9AF891
:1019E000003013F0080F14D02B23129A137002E06A
:1019F0002D23129A13709AF803B0C1F30A540246C9
:101A0000C1F3130364B952EA030130D14FF0000E61
:101A100008E013F0100FEED02023129A1370EAE7BB
:101A20004FF0000E40F2FF718C4223D0BBF1460F05
:101A300060D04FEAC32C4CEA525CD2022CF0004C2E
:101A40000692CDF81CC044EA0200E31743EA0C01F9
:101A500050EA010308D0BEF1000F4FD1A4F2FE34CA
:101A6000079B43F0004307934FF0000861E04FF0FD
:101A7000010ED7E7134322D1AD4B1BF8033003F01F
:101A80000303012B11D06923139A13706E23537033
:101A90000332662313998B709AF800306FF3861324
:101AA0008AF80030149B1A6092E14923139A13704C
:101AB0004E2353700332462313998B70ECE79C4BF3
:101AC0001BF8033003F00303012B09D06E23139A94
:101AD0001370612213994A700A4603328B70DBE758
:101AE0004E23139A1370412213994A700A46033207
:101AF0008B70D1E74FF0660B9BE7013C069B079A82
:101B000013EB030842EB0209CDE90689B8F1000F97
:101B100079F10003F1DAA1E74FEA820C98004CEA70
:101B20009374C31844EB0202069307928C1C08F1CD
:101B3000FF3814F1020F26DA0799069B5B0843EA87
:101B4000C1734A080693079221460134B2F1333F2C
:101B5000F2D2E1E7069B0233079A42F100020693B4
:101B6000079206A810F0E2FB013C08F10108069B71
:101B7000079ADE1842EB0207CDE90667013C002E0A
:101B800077F10003F3DA002CE4DCC4F10401079AD6
:101B90001C34A1F12000069BCB4002FA04F423433D
:101BA00022FA00F00343CA4006930792BBF1670F85
:101BB00012D0BBF1470F0FD00027BBF1660F29D021
:101BC0006C1C102305939C4200DD1C4600224FF044
:101BD0000063CDE9022328E018F1030F01DBA845DB
:101BE00011DDABF1020B5FFA8BFB002D00DD013D37
:101BF0009AF80030C3F3401713F0200F08D1002DDE
:101C0000DBDD0127D9E7A5EB08054FF0660BEFE711
:101C10000027D2E718EB0504D3D510230593002441
:101C2000D4E702A810F0A0FB3446661E002CF8D1C1
:101C3000069B029A9B180093079A039B42EB0303AF
:101C40000193DDE90023CDE90623B3F1805F08BFEE
:101C5000002A07D2BBF1660F45D1B8F1000F3DDD78
:101C6000139E0DE006A810F07FFB08F10108F1E7D4
:101C700005A906A810F084FB06F8010B08F1FF384F
:101C8000B8F1000F02DD059B002BF1DCCAF80480DF
:101C9000A0469AF8003013F0200F01D1002D02DD8C
:101CA0002E2306F8013BB8F1000F33DA002D31DDA9
:101CB000C8F10003CAF804309D4201DACAF80450A2
:101CC000DAF80430ED1A002BD4BF002301239AF870
:101CD000022063F345128AF802201BE0139E302392
:101CE00006F8013BD5E705A906A810F049FB139EAD
:101CF00006F8010B302801D008F1FF389AF80030BF
:101D000013F0200F01D1002D04DD139B9E1C2E2308
:101D1000139A5370002D0DDD059B002B0ADD05A9DC
:101D200006A810F02DFB06F8010B013DF2E700BFFD
:101D300097A30200CAF8085057B10023CAF8083028
:101D400033461E4613F8012D302AFAD02E2A43D0EE
:101D5000BBF1650F02D0BBF1450F2AD186F800B068
:101D6000B8F1000F3ADBB21C2B237370B8F1630F8C
:101D70000DDD204981FB08314FEAE873C3EB6113A5
:101D800003F1300102F8011B642101FB13881A4999
:101D900081FB08314FEAE873C3EBA10303F1300183
:101DA000164606F8021B03EB8303A8EB430330330C
:101DB0005370DAF80430002B16DD01249AF8023053
:101DC00064F386138AF80230149B1E60002333707C
:101DD000139809B0BDE8F08F1E46B9E7C8F10008B6
:101DE000B21C2D237370C1E7DAF80830002BE5DD53
:101DF0000124E3E71F85EB51676666662DE9F04F26
:101E000099B006460D4617460593002400E00134BC
:101E10003878002800F09385252807D00137294617
:101E2000B0470028F3DA19B0BDE8F08F00230A9319
:101E30000B930F930DF15D0208928DF81F300C93F8
:101E40000D930E9307F101097B78252B02D04FF0FB
:101E5000010831E007F102098DF83330AEE19DF859
:101E6000303043F004038DF83030B8F1000F20D04B
:101E700009F101091DE09DF8303043F008038DF8A9
:101E80003030F2E79DF8303043F010038DF83030F9
:101E9000EBE79DF8303043F020038DF83030E4E775
:101EA0009DF8303043F040038DF83030DDE74FF0DF
:101EB0000008B8F1000F29D099F80030203B102B12
:101EC000F5D801A252F823F0851E0100AF1E0100D3
:101ED000AF1E0100931E0100AF1E0100AF1E0100E6
:101EE000AF1E0100AF1E0100AF1E0100AF1E0100BA
:101EF000AF1E0100771E0100AF1E01005F1E010032
:101F0000AF1E0100AF1E0100A11E01009DF8303080
:101F100003F04403442B6DD0CDF824909DF830306D
:101F200043F080038DF8303099F800302A2B68D0C8
:101F300009A8FFF7C3FC099B994512D09DF83030E2
:101F400043F080038DF830300D90C3F34003002838
:101F500060DB002213439DF8302063F341028DF8CB
:101F60003020099B09931B782E2B14BF00230123DB
:101F70009DF8312063F341028DF83120002B4BD0C6
:101F8000099B5A1C09925B782A2B48D009A8FFF7B5
:101F900095FC0E909DF83030C3F34003002847DBDA
:101FA000002213439DF8302063F341028DF8302066
:101FB000DDF8249099F800304C3B2E2B00F2DC80A9
:101FC000DFE803F0CADADADADADADADADADADADA2F
:101FD000DADADADADADADADADADADADADADADADA61
:101FE00038DA6ADA51DADADADADADADAC0DADADA06
:101FF000DADAB6009DF830306FF386138DF83030A2
:102000008AE79DF8313043F001038DF831304B46BB
:102010000133A7E701229DE7DDF82490CAE79DF888
:10202000313043F004038DF8313002F10109C1E78A
:102030000122B6E709F1010299F80130682B08D0B6
:102040009DF83130022161F3C6038DF8313091469D
:102050002BE09DF83130012262F3C6038DF8313058
:1020600009F1020921E009F1010299F801306C2B14
:1020700008D09DF83130032161F3C6038DF831306B
:10208000914612E09DF83130042262F3C6038DF8C8
:10209000313009F1020908E09DF83130052262F380
:1020A000C6038DF8313009F1010919F8012B8DF8BB
:1020B0003320A2F14103372B00F28581DFE813F0D2
:1020C0003101830183018301310131013101830138
:1020D00083018301830183018301830183018301E0
:1020E00083018301830183018301830183011C0137
:1020F00083018301830183018301830183018301C0
:10210000310183011C01630031013101310183017F
:102110006300830183018301830162011C01730158
:1021200083018301730183011C01830183011C016D
:102130009DF83130062262F3C6038DF8313009F183
:102140000109B2E79DF83130072262F3C6038DF82A
:10215000313009F10109A8E79DF83130082262F316
:10216000C6038DF8313009F101099DF8303043F094
:1021700002038DF8303098E79DF831306FF3C603D5
:102180008DF8313091E79DF83230012161F302037F
:102190008DF832309DF8313003F07803402B00F099
:1021A000B380632A00F0B7809DF83030C3F340025B
:1021B00048EA020868F341038DF830309DF8313069
:1021C00013F0010F00F01281059B1A1D0592D3F840
:1021D0000080B8F1000FC0F200819DF8313013F09B
:1021E000040F00F01681059B1A1D0592D3F800A07C
:1021F000BAF1000FC0F2048100230D930E939DF8F5
:10220000323003F00703042B00F00C819DF83230CC
:1022100003F007039DF83110C1F3C301012B00F057
:102220001181022B00F05681042B00F0A781032BB3
:1022300000F0BE819DF8302012F0030F40F0BE8107
:102240009DF83330253B532B00F2CB81DFE813F0B0
:10225000C201C901C901C901C901C901C901C90135
:10226000C901C901C901C901C901C901C901C9011E
:10227000C901C901C901C901C901C901C901C9010E
:10228000C901C901C901C9018A02C901C901C9013C
:102290008A028A028A02C901C901C901C901C901A8
:1022A000C901C901C901C901C901C901C901C901DE
:1022B000C901C901C9012402C901C901C901C90172
:1022C000C901C901C901C9018A02C9010E02160268
:1022D0008A028A028A02C9011602C901C901C9011A
:1022E000C901660224024E02C901C901CB01C9011C
:1022F0002402C901C90124029DF83230022161F390
:1023000002038DF8323045E79DF8301041F00101AD
:102310008DF8301045E7B3F1000818BF4FF0010801
:1023200042E79DF83230042161F302038DF8323028
:10233000612A1FD0412A1BD000229DF8313062F360
:10234000C7138DF83130DAB213F0800F42D102F0AA
:102350007802182A10D0002A3FF426AF402A3FF412
:1023600023AF9DF8303043F001038DF830301BE788
:102370000122E2E70122E0E7DBB26FF3C6038DF84A
:10238000313011E79DF83230032262F302038DF8F9
:1023900032309DF8313003F07803402B7FF404AFE6
:1023A0004FF0010800E79DF83230032262F3020388
:1023B0008DF832309DF8313013F0780F3FF4F4AEE1
:1023C0004FF00108F0E69DF8303043F001038DF83E
:1023D0003030E9E64FF00108E6E69DF8303043F092
:1023E00004038DF83030C8F10008F6E69DF930306E
:1023F000002B02DB4FF0FF38EFE6DDF83480ECE62F
:102400009DF831306FF341038DF831304FF0FF3AD2
:10241000F2E613F0020F02D0DDF838A0ECE64FF040
:10242000FF3AE9E69DF8313013F0020F7FF4EEAE8B
:102430009DF93130002B02DB4FF0060AE6E64FF043
:102440000D0AE3E6CB1E042B04D8DFE803F00B1DD6
:1024500029353500059B1A1D05921A68D317CDE959
:102460000A2306E0059B1A1D05921A68D317CDE9C9
:102470000A23012928D002297FF4DCAEBDF92820E7
:10248000D317CDE90A23D5E6059B073323F00703CD
:1024900003F108020592D3E90023CDE90A23E8E716
:1024A000059B073323F0070303F108020592D3E9E4
:1024B0000023CDE90A23DCE7059B1A1D05921A6863
:1024C000D317CDE90A23D4E79DF828300A930023D7
:1024D0000B93AFE6CB1E042B04D8DFE803F00B1FF1
:1024E00035414100059B1A1D05921B680A93002384
:1024F0000B931EE09DF83330632B07D0059B1A1D0C
:1025000005921B680A9300230B9312E0059B1A1D8A
:1025100005921B680A9300230B930AE0059B07337F
:1025200023F0070303F108020592D3E90023CDE964
:102530000A2301291CD002297FF47CAEBDF8283083
:102540000A9300230B9375E6059B073323F00703DB
:1025500003F108020592D3E90023CDE90A23E8E755
:10256000059B1A1D05921B680A9300230B93E0E755
:102570009DF828300A9300230B935BE608290BD0C3
:10258000059B073323F0070303F108020592D3E903
:102590000023CDE90A234DE6059B073323F007030B
:1025A00003F108020592D3E90023CDE90A2341E6AD
:1025B000059B1A1D05921B680A933BE64B463A465B
:1025C000294630460FF0F8FE0028FFF62CAC0444F4
:1025D0004F461DE429462520B0470028FFF623ACCE
:1025E00001344F4614E40A9FBAF1000F3ADB51461A
:1025F000384614F0A4F938440890002FF1D0089B15
:10260000DB1B9DF81F0000B101339DF8321011F063
:10261000100F00F0B68002330D9A134411F0400FF2
:1026200001D00E9A1344B8F1000F40F3C380A8EB19
:1026300003089DF8303013F0040F40F0BB8013F016
:10264000400F00F0A480002800F0A4802946B04785
:102650000028FFF6E8AB013400238DF81F304FF05F
:10266000300A99E03846FEF7DDFBC4E70A9B8DF897
:1026700044300DF14503089311AFBEE712F0080F87
:1026800024D02B238DF81F30DDE90A23002A73F1B3
:10269000000122DBCDE90A23089B009311AB0CAAB1
:1026A000DDE90A01FFF722F90746BAF1000FA4DBC2
:1026B000089BDB1B9DF830206FF386128DF83020CD
:1026C0009A459AD9AAEB03030D9396E712F0100FDF
:1026D000DAD020238DF81F30D6E72D218DF81F107A
:1026E000524263EB4303CDE90A23D5E70A9818B9B0
:1026F000944F0897053F80E7089B009311AB0CAA05
:102700000021FFF7F3F807469DF8323043F010033D
:102710008DF8323078238DF83330C6E70A9A9DF869
:102720003130C3F3C303072B3FF65BAFDFE803F0A1
:102730000406080A0C111618146052E7147050E7CA
:1027400014804EE714604CE72046E117C2E900010F
:1027500047E72046E117C2E9000142E7146040E77D
:1027600014603EE708AB029311AB01930DF11F0318
:10277000009353460CAADDE90A01FFF727F9074643
:102780003BE711F0080F3FF447AF013344E74FF048
:10279000200A01E04FF0300A434603F1FF38002BD6
:1027A00008DD29465046B0470028FFF63CAB01340F
:1027B0004346F2E79DF81F0028B12946B04700289C
:1027C000FFF631AB01349DF8323013F0400F72D078
:1027D0009DF93130002B0DDB38785B4BC35C13F077
:1027E000040F12D001372946B0470028FFF61BAB73
:1027F0000134F1E73878702844D001372946B047D2
:102800000028FFF610AB0134F4E7DDF834A09DF8A2
:10281000323013F0200F10D038782E281DD03878A1
:10282000494BC35C13F0040F2CD001372946B04745
:102830000028FFF6F8AA0134F1E70AF1FF3BBAF1EC
:10284000000F08DD29463020B0470028FFF6EBAA2C
:102850000134DA46F1E7DA46DEE701372946B047C8
:102860000028FFF6E0AA01340AF1FF3BBAF1000F9D
:10287000D5DD29463020B0470028FFF6D4AA013420
:10288000DA46F1E70E9B03F1FF3A002B08DD2946FB
:102890003020B0470028FFF6C6AA01345346F2E7BD
:1028A000089B3A46294630460FF086FD0028FFF681
:1028B000BAAA044433E09DF83230C3F30012C3F3E4
:1028C000C003134306D029463020B0470028FFF646
:1028D000AAAA01349DF8323013F0100F07D0294610
:1028E0009DF83300B0470028FFF69DAA01340D9BE8
:1028F00003F1FF3A002B08DD29463020B0470028BD
:10290000FFF691AA01345346F2E7089B3A4629465E
:1029100030460FF051FD0028FFF685AA0444B8F1B7
:10292000000F09DD29462020B0470028FFF67BAACA
:10293000013408F1FF38F2E74F46FFF769BA204645
:10294000FFF771BA217E020097A302004FF0200228
:10295000EFF3118382F31288BFF36F8F044A0121D2
:10296000C2F8401583F31188BFF36F8F00207047C2
:102970000090034030B108B58001034B43F00103E0
:10298000984708BD704700BF40720200054B98424F
:1029900004D3054B984203D30020704700207047B2
:1029A00001207047AC6D0200ECA4020008B5064B94
:1029B000186018B1054B1B68092B00DC08BD0448E2
:1029C0000CF044FCFAE700BF20E20020F0E1002018
:1029D000ACC8002008B502480CF038FC08BD00BFA8
:1029E000ACC8002008B503480FF02DFD003818BF13
:1029F000012008BDFCE1002030B589B000220F495C
:102A00000F4813F01BFE0F4D00220023CDE90623D3
:102A1000002404940E2303930294019400940A4B1F
:102A20004FF440720949284613F0B8F9084928467E
:102A30000CF052F9204609B030BD00BFD529010085
:102A400018C9002050C900200531010048FA0020B3
:102A5000287E020070B4034600200546044601E0CB
:102A600084F0010413F8012B9AB18D4211D2252A6A
:102A7000F6D0002CF6D0084E965D16F0030FF1D07C
:102A8000732A02D001350024ECE70122AA4010434A
:102A9000F8E770BC704700BF97A30200164BD3E85D
:102AA000EF2F511CC3E8E01F0028F8D11ABB70B506
:102AB000002409E0114B03EB06135B68042219683C
:102AC000284600F05FFB01340D4B0C4A9B1AB4EB17
:102AD000231F0FDA2646094D05EB04152B7B002B2F
:102AE000F1D02301054AD3589B69002BE2D0284638
:102AF0009847DFE770BD7047F8E100209871020049
:102B0000A871020038B108B5044A1060084600F008
:102B1000B5FD002008BD6FF015007047E4C500202A
:102B200008B500230A4A13700A4A13604FF40041A3
:102B30000948FFF7E7FF00F047FB08480FF075FC76
:102B4000042334220649074813F0CAF808BD00BF21
:102B5000FFF80020F4E100205F240200FCE10020E7
:102B60000828012004E2002010B54FF02003EFF305
:102B7000118483F31288BFF36F8F04480FF065FC54
:102B800084F31188BFF36F8F10BD00BFFCE10020FC
:102B900008B5054B1B781BB1034B01221A7008BD09
:102BA00002480CF053FBF7E7FEF80020ACC8002009
:102BB000084BD3E8EF2F0132C3E8E12F0029F8D109
:102BC000054BD3E8EF2F013AC3E8E12F0029F8D1F4
:102BD000704700BFF4E10020F0E10020044B00202A
:102BE0000246D3E8EF0FC3E8E12F0029F9D170477F
:102BF000F4E1002038B5FFF7F1FF0546002400E0BE
:102C000001340B4B0B4A9B1AB4EB231F0FDA094814
:102C100000EB041043685B79002BF1D02301054AD7
:102C2000D3581B69002BEBD029469847E8E738BDFD
:102C3000A871020098710200034B18680028D4BFE5
:102C400000200120704700BFF4E1002070B582B081
:102C50000446FFF79BFEF0B90022002301A90F48AC
:102C60000BF0E4FF08B10E4C15E0019B0122D3E804
:102C7000EF1FC3E8E02F0028F9D1019D2E1D2D2262
:102C80002146304613F048FE7E2385F8313000237C
:102C900085F832303446204602B070BD04E2002090
:102CA000307E020038B1074A904206D3D0329042BB
:102CB00005D3002070470020704700207047012096
:102CC000704700BF08280120037A13F0010F00D0DD
:102CD00070472DE9F04383B006460FF07DFC0746B0
:102CE00030460FF064FC01463846FFF7B3FE054658
:102CF00004E0012303FA04F425EA04056DB3B5FAF0
:102D000085F4C4F11F04214630460FF053FC814680
:102D1000FFF73CFE0028ECD14846FFF7C3FF002830
:102D2000E7D10F4B9945E4D07189C1F3891100F0C7
:102D300019FA02460B4B0C495B1ADB08012161F3BF
:102D400002086FF3C50863F38F18ADF800803B46A7
:102D50002146064800F0A8F8CBE703B0BDE8F083B1
:102D6000307E020030710200087102004C7E0200C9
:102D7000F8B5064619BB144B1B780BB1002403E0D1
:102D8000FFF7A2FFFAE70134104B114A9B1AB4EB8C
:102D9000231F14DA0E4D05EB04156B685B79002BCD
:102DA000F1D0314628460FF058FB0028EBD0270120
:102DB000074BDB595B68314628469847E3E73046C6
:102DC0000FF00CFCF8BD00BFFFF80020A871020056
:102DD0009871020010B504460F4B1B7803B9B0B1CF
:102DE000FFF7C2FE034660B13CB90C4AD2E8EF1FC0
:102DF0000139C2E8E01F0028F8D121461846FFF744
:102E0000B7FF14B9FFF718FF10B9FFF7EBFD10BDBE
:102E1000FFF7F0FEF9E700BFFEF80020F0E1002028
:102E200010B582B01B4BD3E8EF2F511CC3E8E01F55
:102E30000028F8D1184B1B783BB9184B1B6803B11D
:102E40009AB10A2A1CD002B010BD4FF02003EFF354
:102E5000118483F31288BFF36F8F0020FFF7BAFF4E
:102E600084F31188BFF36F8FEDE700220023CDE9D3
:102E700000234FF40042002309480DF0AFF9E2E7C8
:102E8000002BE0D0064813F0E5FB06480CF0DEF915
:102E9000D9E700BFF0E10020FFF8002020E2002089
:102EA00018C90020ACC800202DE9F04180460F462B
:102EB00016461D4600F0ACF9044640B101234360BC
:102EC000002202814FF0000362F3000303724CB151
:102ED000C4F81080637A032262F307136372676198
:102EE000A661E561C4B1BDF8183063810B4B1B6866
:102EF0009847E0604FF02003EFF3118583F31288C9
:102F0000BFF36F8F214606480FF093FA85F31188BF
:102F1000BFF36F8FFFF784FFBDE8F081E4C50020A9
:102F2000FCE10020F8B506460D46174600F070F9A2
:102F3000044640B101234360002101814FF00003AA
:102F400061F30003037234B12661637A012262F3F4
:102F5000071363726561B4B167810B4B1B689847B7
:102F6000E0604FF02003EFF3118583F31288BFF385
:102F70006F8F214605480FF05CFA85F31188BFF387
:102F80006F8FFFF74DFFF8BDE4C50020FCE1002086
:102F90002DE9F04107460E461546984600F038F9EF
:102FA000044640B101234360002202814FF0000338
:102FB00062F3000303723CB12761637A022262F379
:102FC000071363726661A561BCB1A4F80A800C4B5B
:102FD0001B689847E0604FF02003EFF3118583F3FF
:102FE0001288BFF36F8F214606480FF022FA85F34F
:102FF0001188BFF36F8FFFF713FFBDE8F08100BFAB
:10300000E4C50020FCE1002038B51C460FF026FB8B
:10301000B8B1054644810B4B1B689847E8604FF0F8
:103020002003EFF3118483F31288BFF36F8F2946D7
:1030300005480FF0FEF984F31188BFF36F8FFFF797
:10304000EFFE38BDE4C50020FCE1002070B5054668
:103050000E4600F0DDF8044640B101234360002233
:1030600002814FF0000362F30003037204B1256193
:10307000B4B166810B4B1B689847E0604FF02003AA
:10308000EFF3118583F31288BFF36F8F2146064853
:103090000FF0CFF985F31188BFF36F8FFFF7C0FEF4
:1030A00070BD00BFE4C50020FCE10020124B1B787E
:1030B00003B1704710B5FFF7F1FC002400E00134C4
:1030C0000E4B0F4A9B1AB4EB231F0CDA0C4800EB93
:1030D000041043685B79002BF1D02301084AD358D0
:1030E0005B699847EBE70020FFF774FE0028FAD1F0
:1030F000014B01221A7010BDFFF80020A8710200D8
:103100009871020008B5FFF7C9FC0CF03FFEFFF70D
:103110004DFC06E04FF0FF324FF0FF3304480CF057
:10312000BDF80020FFF756FE0028FAD1F2E700BFF5
:10313000ACC8002000B583B004380190D0E8EF3F60
:103140005A1EC0E8E12F0029F8D1012B02D003B0AC
:103150005DF804FB01A9024812F0D0FDF7E700BFBB
:1031600004E20020054B064A9B1AB1EBD30F02D2B2
:1031700052F8310070470020704700BF987102007C
:103180000871020008B5074BC31A1B1101334268CE
:10319000137143681960436801225A71FFF7F8FC04
:1031A00008BD00BF9871020010B582B00190019B6C
:1031B00033B11C6801A9034812F0A0FD0194F6E7A1
:1031C00002B010BD24E2002008B520231A460249AF
:1031D000024812F085FD08BDD828012024E2002015
:1031E00010B582B0002301930120FFF7F3FD0446E0
:1031F000FFF7DEFC0022002301A904480BF016FDB6
:1032000008B1002CF0D1019802B010BD24E20020DA
:1032100000B583B0002301930FF027F950B10022CD
:10322000002301A907480BF001FD30B9019803B054
:103230005DF804FB00220023F3E7FFF7D1FF0190C4
:10324000F4E700BF24E20020F0B583B0019004460B
:103250000FF0ADF9237A13F0010F01D1064650BBF0
:10326000019B1A7A12F0020F28D101A9154812F019
:1032700045FD03B0F0BD01980FF0AEF93146FFF700
:10328000E9FB074688B9EBE72846FFF753FF01340F
:10329000B442E5D2214601980FF08CF90546FFF7BC
:1032A00001FD0028F3D0002FE5D027FA04F313F036
:1032B000010FECD0E8E700273C46E9E75869FFF743
:1032C00073FFD2E724E200200EB400B582B00146BD
:1032D00003AB53F8042B01930348FEF78FFD02B0B4
:1032E0005DF804EB03B07047AF290200F0B585B07C
:1032F00011F0440F05D01A4B1C6834B9002005B0FA
:10330000F0BD1849FFF7E0FFF9E7174B1968B2FB6A
:10331000F1F1B1FBF4F5154AA2FB0532D20A4FF4E4
:10332000616606FB1256124BA3FB06735B0904FB96
:1033300015114FF47A7505FB01F1B1FBF4F707FBAA
:10334000141105FB01F1B1FBF4F402940197C3EBF6
:103350000311A6EB810100910649FFF7B5FFCEE707
:1033600040E20020907E020044E20020C5B3A2911A
:10337000898888889C7E020061B108B52AB1064A16
:1033800052F8232012B9054A00E0044A0449FFF725
:103390009BFF08BD704700BF0C7F0200B87E020093
:1033A0006099020011F0100F0BD108B511F0200F39
:1033B00003D00449FFF788FF08BD0349FFF784FFE6
:1033C000FAE77047EC9502004C9B02002DE9F041B2
:1033D00005460F46164698460699FFF7E3FF002478
:1033E000444505DA24492846FFF76EFF0134F7E724
:1033F000002409E020492846FFF766FF0BE01F493B
:103400002846FFF761FF01340F2C0CDC002C02DD95
:1034100014F0070FEED0B442F1D23A5D18492846B5
:10342000FFF752FFEFE717492846FFF74DFF00244B
:1034300009E011492846FFF747FF0BE012492846EB
:10344000FFF742FF01340F2C13DC002C02DD14F0D7
:10345000070FEED0B44207D23A5D0C4BD35C13F0A9
:10346000970FEBD12E22E9E703492846FFF72CFFFF
:10347000E8E7BDE8F08100BFE47E0200C87E0200FC
:10348000C07E0200CC7E0200D07E020097A3020024
:103490002DE9F041804616461D46BDF9187059B910
:1034A0000024002F1CDB86B10123079A934013F000
:1034B000100F18D10D4E09E00D4B079A53F822203A
:1034C0000C49FFF701FF0446EBE7084E3946284652
:1034D000FFF748FE024631464046FFF7F5FE04443A
:1034E0002046BDE8F081044EF0E700BFD47E020024
:1034F000487F0200E07E0200DC7E02002DE9F04FF2
:1035000085B005460C46164603939DF8388001F0B9
:10351000020B01F0010AC1F3C0090EF0A4FFE8B1EB
:10352000024613492846FFF7CFFE0746BBF1000FBE
:1035300016D14246514628460FF0B9F8CDF804801E
:10354000BDF9403000939DF83C303246494628464C
:10355000FFF79EFF384405B0BDE8F08F0027E5E790
:10356000039A21462846FFF7C1FE0744E1E700BF62
:10357000E87E02002DE9F04389B007460E469146E9
:1035800098460FF029F802460E493046FFF79CFE98
:10359000002410250395234603AA0DEB05013846A8
:1035A0000FF070F8039A52B1CDF800804B460DEB46
:1035B00005013046FFF70AFF039D2C44E9E709B0F7
:1035C000BDE8F08360990200F0B583B006460C4672
:1035D00000273D460DE0A268134413F8017C0A2F32
:1035E00014BF0027012720460FF0D4F9019B1D448A
:1035F00073B1E36801932B4601AAA16830460FF02E
:1036000041F86368019A1A60019B002BEBD0E2E756
:103610000FB903B0F0BD02492046FFF755FEF8E7A9
:103620004474020070B582B00446056842F20F731C
:103630008B4228BF0B460E4A052168460EF0C4FA9D
:10364000064663685B680B220A4928460FF022F899
:1036500063685B683246694628460FF01BF863686A
:103660005B681B22044928460FF014F802B070BDB5
:10367000848E02003C7F0200207F0200074B012263
:103680001A60074B984205D94008044A13685B004A
:103690001360F6E7034B1860704700BF44E2002058
:1036A00040420F0040E2002070B506460D4600245F
:1036B000AC4207D2044B1868315D83685B68984759
:1036C0000134F5E7284670BD5CE20020014B024A58
:1036D0001A6070475CE20020946E020008B5034B4C
:1036E00001221A7002480FF055F908BD00F90020B8
:1036F000987F020008B50248FFF794FF08BD00BF9D
:10370000987F020010B50C4608460EF047FF0F22C6
:10371000214603480FF063F920460EF05FFF10BD0D
:10372000987F020070B58EB004460E4615463022D2
:10373000002102A813F0A5F82CB33DB31B238DF88C
:1037400008300FF08BF9134A02442261130A03F484
:103750007F4343EA1263110201F47F010B4343EA02
:1037600002630C93E068002301930093302202A9C6
:103770000FF06FFA002804DB2A46314620460FF08E
:103780008DF90EB070BD6FF00D00FAE76FF00D000F
:10379000F7E700BF807EAA83F8B505460E461746B8
:1037A0000E4C0F4B9C4211D22368AB4200D05BB948
:1037B00063683A4631462846984728B1A3683A4696
:1037C000314628469847F8BD0C34EAE70FF0E3FB92
:1037D0006A2303604FF0FF30F5E700BFFC70020082
:1037E000087102002DE9F04F9FB0044603900D468A
:1037F000049192469B461046194612F0EFFE069041
:1038000007910FAB0E9300230593994698460BE062
:103810004FF0000A4FF0000B00250C980BF096FCBF
:10382000002D35DB083435466E1E002D37D020685C
:103830000028F7DB0CAA0DA9FDF78AFE0746002831
:10384000F0D00C984FF0FF324FF0FF330BF0F4FB49
:103850001EAB01930EAB009323464FF481723946A1
:103860000D980FF099F9054610F1780FD0D010F1AE
:10387000120FD2D1B9F1000F03D000254FF001088B
:10388000CBE7DDF83490059700254FF00108C4E739
:103890000FF081FB6D4205604FF0FF39C3E0B8F1D6
:1038A000000F0AD15AEA0B034ED0BBF1FF3F08BF0D
:1038B000BAF1FF3F2FD105959BE0BBF1FF3F08BF59
:1038C000BAF1FF3F24D00021084651464B01CA0EF1
:1038D000B3EB0A0362EB0002940044EA93749D0088
:1038E000224615EB0A0340EB0202D10041EA537174
:1038F000D800C30B43EA41430193049B0093039B0D
:103900004FF48272059948460FF046F981468AE0E5
:103910004FF0FF33F0E70CF0F7FB069B1B1A089300
:10392000079B63EB01030993DDE90834012B74F174
:10393000000303DBDDE908AB05955AE04FF0000A10
:103940004FF0000B059554E0059552E00FAB0E9338
:10395000039C049BDDF81490474605E02023E38098
:1039600009F10109083433465E1E002B33D00023D1
:10397000E38020689842F5DB0CAA0DA9FDF7E8FD6D
:1039800005460028EAD00C984FF0FF324FF0FF3385
:103990000BF052FB0EAB0093234640F20312294674
:1039A0000D980FF0F9F805460C980BF0CFFB15F1C8
:1039B0000B0F0ED035B9B4F90630002BD2D009F177
:1039C0000109CFE70FF0E7FA6F4207604FF0FF39C8
:1039D00029E00127C6E75FB1B9F1000F23DC5AEAFD
:1039E0000B0320D0BBF1FF3F08BFBAF1FF3F1ED150
:1039F000CFB10FA80E9B1B1A9B10154901FB03F1B9
:103A000052465B460CF05AFC044600289ED010F14A
:103A10000B0F9BD010F1040F98D00FF0BCFA64424A
:103A200004604FF0FF3948461FB0BDE8F08F0CF03E
:103A30006BFB069B1B1A0A93079B63EB01030B931B
:103A4000DDE90AABBAF1010F7BF10003D0DAEAE756
:103A5000CDCCCCCC014B1860704700BF64E2002095
:103A600010B5024C24682468A04710BD64E2002011
:103A700008B5024B1B685B68984708BD64E20020EC
:103A800070B584B02A4B1C7D04F01F0301229A40BC
:103A90006109284B03EB8103D043D3E8EF1F01EA10
:103AA0000005C3E8E65F002EF7D10A423DD004EBE3
:103AB00044039A00204B134493E8070004AB03E946
:103AC00007001E4B63B10EF0A5FC4FF02003EFF38F
:103AD000118683F31288BFF36F8F194B1D680AE0BC
:103AE000002383F31188BFF36F8FEEE72B460DB1F0
:103AF0002B686BB11D465DB1AA68002AF6D00C4B4D
:103B00001B7D03EB430399000B4B585C9047EDE79B
:103B100086F31188BFF36F8F074804EB4404A200BB
:103B20008118002383504B608B6004B070BD00BFD0
:103B3000A0F8002070E2002074E2002015240200AA
:103B400068E20020F0B589B005464E4B1C7D04F0BC
:103B50001F0301229A4061094B4B03EB8103D3E819
:103B6000EF1F41EA0200C3E8E60F002EF7D10A4238
:103B700016D004EB4403454A12F82330002B7FD0C3
:103B8000B5F1FF3F1CD10BF0C3FD4FF02003EFF365
:103B9000118683F31288BFF36F8F3D4B1D682AE0B7
:103BA00004EB4406394B03EB86066F462A46214652
:103BB00038460FF002F997E8070086E80700D8E7D3
:103BC00004EB440302EB83039B68590CD803314E8A
:103BD000314A002380194FF0000646EB0101FCF743
:103BE0009DFF0121281A12F0C0FCCCE72B460DB135
:103BF0002B686BB11D465DB16A68002AF6D0214B77
:103C00001B7D03EB4303214911F823009047EDE7A7
:103C100086F31188BFF36F8F04F01F0301219940D1
:103C200063091E4A02EB8303D3E8EF2F0A43C3E87C
:103C3000E02F0028F8D104EB4403144A02EB83037D
:103C400093E8070008AB03E90700154B0BB10EF032
:103C5000CEFBFFF715FF0BF059FF012004F01F0208
:103C6000012393406409084A02EB8404DB43D4E84F
:103C7000EF2F1A40C4E8E12F0029F8D109B0F0BDB8
:103C80000020EBE7A0F8002080E2002074E2002092
:103C900068E200203F420F0040420F0070E2002027
:103CA000EF23020008B50BF033FD02480FF0EEF8E9
:103CB00008BD00BF84E2002008B503480FF0FFF8FC
:103CC0000BF024FF08BD00BF84E200200149102250
:103CD0000A60704710ED00E072B6404080F3118832
:103CE000BFF36F8FBFF34F8F30BF62B6BFF36F8FDD
:103CF000704700BF72B6494081F3118820BF80F33E
:103D0000118862B6704700BFF0B58BB005464B4CCA
:103D10004B4BE41AE40801274FF0000367F302035A
:103D20006FF3C50364F38F13ADF800308368426806
:103D300001684448FFF7B8F84FF0000367F3020347
:103D40006FF3C50364F38F13ADF800306B692A6914
:103D5000E9683D48FFF7A8F84FF0000267F3020258
:103D60006FF3C50264F38F12E9693848FFF7DAF898
:103D7000002441E0314B324A9B1ADB08012262F3F6
:103D800002066FF3C50663F38F16029404F108036D
:103D900005EB8303D3ED007AFCEEE77ACDED037AF1
:103DA000A318049304F1090305EB8303D3ED007A10
:103DB000FCEEE77ACDED057AA31C069304F10A0325
:103DC00005EB8303D3ED007AFCEEE77ACDED077ABD
:103DD000E31C089304F10B0305EB8303D3ED007A96
:103DE000FCEEE77ACDED097A334608220DEB0201AD
:103DF0001748FFF709F904340F2CBBDD0F4C104BAB
:103E0000E41AE40801264FF0000266F302026FF3A1
:103E1000C50264F38F12296E0E48FFF783F84FF046
:103E2000000266F302026FF3C50264F38F12A96900
:103E30000948FFF777F80BB0F0BD00BF78710200BA
:103E400008710200AC7F0200DC7F02000C800200DF
:103E50001C800200608002007080020043B2002BD0
:103E600008DB00F01F005B09012202FA00F0024AA1
:103E700042F82300704700BF00E100E04209054B13
:103E800053F8222000F01F00012303FA00F0104035
:103E9000704700BF00E100E0013143B2002B08DBB6
:103EA0004901C9B203F1604303F5614383F800138C
:103EB000704700F00F004901C9B2014B1954704717
:103EC00014ED00E008B572B6054B9B690BB962B6FC
:103ED00008BD034B00229A6111F082FFF7E700BF93
:103EE000A0F8002030BFFFF7FDBF00BF08B5144B9E
:103EF000144A22F07F029A60BFF34F8FBFF36F8F97
:103F0000D3F8882022F47002C3F88820D3F88820E0
:103F100042F4A002C3F8882003F50C734FF040422E
:103F20005A60BFF34F8FBFF36F8F0023E1EE103A5B
:103F30000AF008FE0BF07AFF00F0C8FC0AF00EFE53
:103F400000ED00E0000001000A4A9368C3F8AC00ED
:103F500009490968C3F8B01008494B6843F0805319
:103F60004B60002383F31188BFF36F8F9368D3F8FE
:103F7000B0007047A0F8002044A1020000ED00E06E
:103F800023498A6882F8F5E04FF030001044EFF3DF
:103F9000098C80E8F01F1EF0100F03D102F1B4006D
:103FA00080EC108A202080F31288BFF36F8F194FA6
:103FB0004FF00066CA698A603E6092F9F5E0D2F877
:103FC000AC000023C2F8AC3080F311881EF0100F53
:103FD00003D00023E1EE103A03E002F1B40090ECCC
:103FE000108AEFF3148323F0040383F31488BFF3E0
:103FF0006F8F02F1300090E8F01F8CF3098802F116
:10400000000004B50EF016FFBDE804407047000044
:10401000A0F8002004ED00E01EF0040F0CBFEFF349
:104020000880EFF30980816911F8021C0229FFD092
:1040300001B50EF0DFFE01BD10B4A2F1200410495D
:1040400021F0010142F8081C42F8203C019B42F893
:104050001C3C029B42F8183C039B42F8143C4FF076
:10406000807342F8043C04650023C0F8AC30C0F80B
:10407000F430BC2380F8F5305DF8044B704700BF86
:104080008B1E020008B504460E4615460EF0C4FE0F
:10409000094B9C60D4F89C3083F30B88284686F348
:1040A0000988002163B681F31188BFF36F8F002266
:1040B00000230DF0EAFE00BFA0F8002001B572B6A3
:1040C0000B4A906900281EBF0021916111F088FE03
:1040D00062B6EFF30580A0F110004FEAC000054979
:1040E000014409C99847BDE8014003490847000059
:1040F000A0F80020F46E0200FD400100044B996816
:10410000D869884203D003494FF080520A60704753
:10411000A0F8002004ED00E010B55A4B5A4A9B1A53
:10412000DB084FF00001012262F302016FF3C501C9
:1041300063F38F115548FEF789FF554B9B6A13F0C7
:10414000007F26D1524B9B6A13F0807F32D1504BB7
:104150009C6A14F480143ED14D4B9B6A13F4002FDB
:104160004BD14B4B9B6A13F4802F57D1484B9B6A22
:1041700013F4003F63D1464B9B6A13F4803F6FD129
:10418000434A936A6FEA03436FEA134393622046FC
:1041900010BD3C4B3C4A9B1ADB084FF0000101224A
:1041A00062F302016FF3C50163F38F113948FEF723
:1041B0004DFFC7E7334B344A9B1ADB084FF0000131
:1041C000012262F302016FF3C50163F38F113248DC
:1041D000FEF73CFFBBE72B4B2B4A9B1ADB084FF04B
:1041E0000001012262F302016FF3C50163F38F1135
:1041F0002A48FEF72BFF0224AEE7224B224A9B1AE5
:10420000DB084FF00001012262F302016FF3C501E8
:1042100063F38F112248FEF719FFA2E7194B1A4AE0
:104220009B1ADB084FF00001012262F302016FF3D9
:10423000C50163F38F111B48FEF708FF96E7114B8A
:10424000114A9B1ADB084FF00001012262F30201C0
:104250006FF3C50163F38F111348FEF7F7FE8AE78A
:10426000084B094A9B1ADB084FF00001012262F358
:1042700002016FF3C50163F38F110C48FEF7E6FEF0
:104280007EE700BF7871020008710200A080020082
:1042900000ED00E0B8800200CC800200E88002005F
:1042A00014810200348102005C81020078810200E6
:1042B00008B500220A70084B08495B1ADB084FF06A
:1042C0000001012060F3020162F3C50163F38F1165
:1042D0000348FEF7BBFE08BD7871020008710200BA
:1042E000A481020070B505460E461446564B574A47
:1042F0009B1ADB084FF00001012262F302016FF309
:10430000C50163F38F115248FEF7A0FE514B9B6A23
:1043100013F0100F26D14F4B9B6A13F0080F32D1C8
:104320004C4B9B6A13F0020F3ED14A4B9B6A13F031
:10433000010F67D1474B9B6A13F0200F73D1454B98
:104340009B6A13F0100F01D1424B9B6A414A936A5A
:1043500043F0FF039362012128460EF070FD2070A8
:10436000002070BD384B394A9B1ADB084FF0000122
:10437000012262F302016FF3C50163F38F11364826
:10438000FEF764FEC7E7304B304A9B1ADB084FF05C
:104390000001012262F302016FF3C50163F38F1183
:1043A0002E48FEF753FEBBE7274B284A9B1ADB0833
:1043B0004FF00001012262F302016FF3C50163F3C4
:1043C0008F112748FEF742FE224B596B9B6A13F070
:1043D000800FAAD01C4B1D4A9B1ADB084FF000022D
:1043E000012060F302026FF3C50263F38F121D48D0
:1043F000FEF798FD002E98D0164A936A23F08003AA
:10440000936292E7104B114A9B1ADB084FF00001B0
:10441000012262F302016FF3C50163F38F111248A9
:10442000FEF714FE86E7084B084A9B1ADB084FF09C
:104430000001012262F302016FF3C50163F38F11E2
:104440000A48FEF703FE7AE778710200087102005D
:10445000C881020000ED00E0E08102001482020049
:104460002882020040820200588202007882020004
:1044700070B505460E4614465E4B5F4A9B1ADB0834
:104480004FF00001012262F302016FF3C50163F3F3
:104490008F115A48FEF7DAFD594B9B6A13F4805F7F
:1044A00024D1574B9B6A13F4006F30D1544B9B6A55
:1044B00013F4007F3CD1524B9B6A13F4806F65D19B
:1044C0004F4B9B6A13F4807F71D14D4B9B6A13F461
:1044D000005F7DD14A4A936A43F47F43936201218E
:1044E00028460EF0ACFC2070002070BD414B424AC3
:1044F0009B1ADB084FF00001012262F302016FF307
:10450000C50163F38F113F48FEF7A0FDC9E7394BA2
:10451000394A9B1ADB084FF00001012262F30201C5
:104520006FF3C50163F38F113748FEF78FFDBDE7C9
:10453000304B314A9B1ADB084FF00001012262F335
:1045400002016FF3C50163F38F113048FEF77EFD62
:104550002B4B996B9B6A13F4004FACD0254B264A2A
:104560009B1ADB084FF00002012060F302026FF398
:10457000C50263F38F122648FEF7D4FC002E9AD0B2
:104580001F4A936A23F40043936294E7194B1A4A33
:104590009B1ADB084FF00001012262F302016FF366
:1045A000C50163F38F111B48FEF750FD88E7114BDF
:1045B000114A9B1ADB084FF00001012262F302014D
:1045C0006FF3C50163F38F111348FEF73FFD81E7D9
:1045D000084B094A9B1ADB084FF00001012262F3E5
:1045E00002016FF3C50163F38F110C48FEF72EFD36
:1045F00070E700BF7871020008710200A882020013
:1046000000ED00E0C082020014820200D4820200A9
:10461000F0820200088302002483020078820200F4
:1046200070B505460C46474B474A9B1ADB084FF0CE
:104630000001012262F302016FF3C50163F38F11E0
:104640004248FEF703FD00232370414BDE6A16F05B
:10465000020609D13E4BDB6A002B17DB3C4BD86AC4
:1046600010F0804024D170BD364B374A9B1ADB08CE
:104670004FF00001012262F302016FF3C50163F301
:104680008F113448FEF7E2FC0020ECE72D4B2E4A58
:104690009B1ADB084FF00001012262F302016FF365
:1046A000C50163F38F112C48FEF7D0FC3046DAE7E2
:1046B000244B254A9B1ADB084FF00001012262F3CC
:1046C00002016FF3C50163F38F112448FEF7BEFCAE
:1046D000AB6933F8022C4DF602739A420ED003F107
:1046E000604303F626631B78DBB91D4B1B78F3B9D7
:1046F0001C4B1B889BB203BB3046B4E7114B124ADC
:104700009B1ADB084FF00002012161F302026FF3F4
:10471000C50263F38F1229681348FEF703FC28686B
:10472000A1E7224601212846FFF7DCFD9BE7224650
:1047300001212846FFF79CFE95E72846FFF7ECFC91
:1047400091E700BF78710200087102003C8302000B
:1047500000ED00E0548302007883020088830200A9
:1047600029ED00E02AED00E0A883020008B50A4622
:104770000B480C4BC01AC0084FF00003012161F335
:1047800002036FF3C50360F38F130F2A05DC06499C
:10479000103A0648FEF7FCFB08BD0549F8E700BFE4
:1047A0007871020008710200C4830200F8830200DD
:1047B000DC8302002DE9F0439DB0354B5D68C5F305
:1047C0000805002383F31188BFF36F8F02F07F4346
:1047D000B3F17F4F2CD180468946144612F0010F69
:1047E00029D112F0400F07D100273E4636BB14F006
:1047F000080F1AD04F4622E0264B274A9B1ADB08A7
:104800004FF00001012262F302016FF3C50163F36F
:104810008F112248FEF71AFC14F0040F02D04F4605
:104820000126E3E747460126E0E74746012606E082
:104830000026374603E00026374600E000260DF14B
:104840006F02294638460EF0FCFA04469DF86F3098
:1048500013B11DB0BDE8F0836822394601A811F0FC
:10486000F0FF4EB1089BC3F308025AB96FEA532315
:104870006FEA4323089305E0089B23F4FF7323F0BA
:104880000103089301A920460EF0A8FAE1E700BF52
:1048900000ED00E078710200087102000C84020053
:1048A000044B5A6942F010025A615A6942F480621C
:1048B0005A61704700ED00E0EFF30880EFF30981E3
:1048C00001B57246FFF776FF01BD00BF002206E08A
:1048D00002F00F01094B0B44202119760132402AC6
:1048E0000ADC53B2002BF3DB03F1604303F56143B1
:1048F000202183F80013F1E7704700BFFCEC00E0D3
:1049000012F04EFA202080F3118808484FF400611D
:10491000401880F30988EFF314800221084380F3E4
:104920001488BFF36F8FFFF7E1FA00000818012029
:10493000BFF34F8F0549CA6802F4E062044B13438A
:10494000CB60BFF34F8F00BFFDE700BF00ED00E07D
:104950000400FA0508B5084B9B68834202D00BF0AF
:104960002BFA08BDEFF30583002BF8D0034A5368F8
:1049700043F080535360F2E7A0F8002000ED00E020
:1049800010B584B0094C2346094A012109480EF0AC
:10499000E3FA00230393084B0193E41A02940121E4
:1049A00001A80EF0DDFA04B010BD00BF0000042025
:1049B00000C500203484020018C90020014B024ABF
:1049C0001A63704790ED00E0AAFF440010B40B6832
:1049D00023F01F020C7A04F01F031A43CB6823F064
:1049E0001F03640943EA440343F001030349886059
:1049F000CA600B615DF8044B704700BF90ED00E0AA
:104A000010B504460F2803D8FFF7E0FF204610BD7D
:104A1000094B0A4A9B1ADB084FF00002012161F39F
:104A200002026FF3C50263F38F1201460448FEF7DA
:104A300079FA6FF01500EAE7587102000871020078
:104A4000408402002DE9F04F87B081460091019328
:104A5000144600265DE06C4B6C4A9B1ADB084FF055
:104A60000002012161F302026FF3C50263F38F12AA
:104A700031466748FEF756FA6FF0150415E06FF0FF
:104A8000150768E0604B614A9B1ADB084FF0000293
:104A9000012161F302026FF3C50263F38F123946FD
:104AA0005C48FEF73FFA6FF01504204607B0BDE8FA
:104AB000F08FD84567D12946F8B20EF032FA27E0D8
:104AC000554B9860D96801F01F0122F01F020A437C
:104AD000DA602946E0B20EF024FA044610F1160F0F
:104AE000E3D0013414E0013B4B4A9060116901F0BE
:104AF0001F0123F01F030B4313612946E0B20EF0A0
:104B000010FA044610F1160FCFD0013400E0013442
:104B10000136009B9E42C8DA06EB46054FEA850A3D
:104B200009EB8505D5F80480B8F1000FF0D0019BA2
:104B300023B128460EF0E3F900288CD059F80AB0CA
:104B400058460EF0D2F9074608EB0B0001380EF07C
:104B5000CCF9874293D117F1160F93D0631EBB4255
:104B600090DB38462C4B9F60D96821F01F019F6075
:104B70001B6943F01F0859F80A306A681A4402F1A9
:104B8000FF3B994295D099429AD0D845ABD0013B92
:104B9000214A07469060116901F01F0123F01F03AD
:104BA0000B4313612946E0B20EF0BBF9044610F145
:104BB000160F3FF47AAF0130174B9F60D9689DF80C
:104BC000102061F304028DF810201B69C3F3420327
:104BD000D2B263F347128DF8102059F80A306A6890
:104BE0001344029323F01F03A8EB0B084344013B3B
:104BF00023F01F03059302A9C0B2FFF701FF04468B
:104C000010F1160F83D150E75871020008710200AD
:104C1000688402008C84020090ED00E010B5034C23
:104C200001232278FFF70EFF207010BD01F900204C
:104C30002DE9F84307468846002403E06FF0150588
:104C400017E00134A0453CDD04EB44039A0007EB78
:104C500083035E68002EF4D057F8029048460EF0A9
:104C600044F9054606EB090001380EF03EF985428D
:104C7000E4D104EB8403164A42F8235015F1160FD1
:104C800020D0144B1B78AB421FDD04EB840302EBF6
:104C90008303114A95609560D568187B65F304001D
:104CA00018731069C0F342001D7B60F347151D7334
:104CB000D16821F01F015960126922F01F021A61A8
:104CC000BFE700252846BDE8F8836FF01505F9E732
:104CD0000CE3002001F9002090ED00E0034B0522D9
:104CE0005A60BFF34F8FBFF36F8F704790ED00E0B6
:104CF000BFF35F8F014B00225A60704790ED00E0D8
:104D000038B50E4B1D68102D15D8FFF7F1FFFFF7D2
:104D100055FE0024A54208D9084B596801EB04113F
:104D20002046FFF753FE0134F4E7054B1D70FFF7F3
:104D3000D5FF002038BD4FF0FF30FBE7E0840200D4
:104D400001F90020014B1860704700BFE8C5002042
:104D5000F8B505460F46002404E0094B1B6830787F
:104D600098470134BC4208DA2E192B5D0A2BF4D186
:104D7000034B1B680D209847EFE73846F8BD00BF8E
:104D8000E8C500200246084B1968084BC8180A44B9
:104D9000C3F1005303F580239A4202D2024B1A60FA
:104DA00070474FF0FF30704720E30020282D01208E
:104DB00008B51D22044902200EF0DBF8404080F3C4
:104DC00011884FF0030002DFB084020038B50446BA
:104DD0004FF0FF324FF0FF3320480AF02DF934B185
:104DE00023680C33D3E8AF3F13F0010F32D12368AF
:104DF0009A7EE2B934B33BB35B683BB39B683BB389
:104E0000012120469847051E0CDB23680C33D3E8AC
:104E1000EF2F42F00102C3E8E12F0029F7D120462D
:104E20000EF0C8F80D480AF091F9284638BD0C3349
:104E3000D3E8EF2F42F00102C3E8E12F0029F7D1B8
:104E40000025EFE70025E0E70025DEE70025DCE7A9
:104E50000025DAE76FF07705E4E700BF54C80020CB
:104E600010B54FF0FF324FF0FF330C480AF0E4F872
:104E70000B4C00E004340B4B9C420AD223681B68A5
:104E80009B68002BF6D01B68002BF3D02046984778
:104E9000F0E702480AF05AF910BD00BF54C80020DC
:104EA000F4C80020F8C8002010B50A4C03E02046E2
:104EB000FFF78CFF0434084B9C420AD2002CF6D03A
:104EC00023680C33D3E8AF3FC3F3C003002BF1D109
:104ED000EDE710BDF4C80020F8C80020074B012200
:104EE000C3F8002590F88E3013B1054B1A60704757
:104EF0000123024A136004321360704700E000404F
:104F00000CE0004049B9054BD3F82C26D3F83416F1
:104F100089B202EB4102C3F82C26704700E0004042
:104F200030B583B000230093CDF803300A7902F046
:104F30001F02072A00F2EA800B78092B56D8DFE817
:104F400003F005393D414555494D555100238DF834
:104F500002304B78032B5CD0042B5ED100238DF8FC
:104F600003304B88002B00F0AE8044F228008342CF
:104F700000F2B98044F203008342C0F0B480A3F58C
:104F80008043033B252B00F2AE80DFE803F059ACF1
:104F900098ACACACAC9CACACACACA0ACACACACA489
:104FA000ACACACACACACACACACACACACACACACAC41
:104FB000ACACACA801238DF80230CAE702238DF80F
:104FC0000230C6E703238DF80230C2E704238DF8D0
:104FD0000230BEE705238DF80230BAE706238DF8CC
:104FE0000230B6E707238DF80230B2E7494B4A4A50
:104FF0009B1ADB084FF00001012262F302016FF3FC
:10500000C50163F38F114548FEF720F86FF01500D6
:1050100053E001238DF80330A3E73E4B3E4A9B1A31
:10502000DB084FF00001012262F302016FF3C501BA
:1050300063F38F113A48FEF709F86FF015003CE072
:1050400000238DF804300C799DF8003003F0030341
:105050009DF80100000100F0300003439DF80200BC
:10506000000200F4E06003439DF80300000300F435
:10507000805003439DF80400000400F4E020034343
:10508000C4F3401443EA04539DF80600000600F000
:1050900080700343234C04EB0210C0F81835887964
:1050A00002F151031D0104EB03135860002060510D
:1050B00049791D4B1A4482F8A81003B030BD012372
:1050C0008DF80430BFE702238DF80430BBE70323DB
:1050D0008DF80430B7E704238DF80430B3E70523D7
:1050E0008DF80430AFE70B4B0B4A9B1ADB084FF0EF
:1050F0000001012262F302016FF3C50163F38F1116
:105100000A48FDF7A3FF6FF01500D6E76FF0150012
:10511000D3E700BF08710200087102001085020089
:105120003085020000E0004000C5002054850200E8
:1051300008B5017CA1F10803062B0DD8DFE803F0C8
:105140001F0C210C040C0A0002220F4BC3F8F0259F
:10515000002008BD0322F8E70C4B0D4A9B1ADB0820
:105160004FF00002012060F302026FF3C50263F307
:105170008F120848FDF7D6FE6FF01500E9E7002210
:10518000E3E70122E1E700BF00E000400871020010
:10519000087102008085020008B5012901D9437C0D
:1051A0004BB9417C082919D8DFE801F02B2B2B2BB8
:1051B0002B2B2B2B2B00154B154A9B1ADB084FF082
:1051C0000001012262F302016FF3C50163F38F1145
:1051D0001048FDF73BFF6FF0150016E00B4B0C4A33
:1051E0009B1ADB084FF00002012060F302026FF30C
:1051F000C50263F38F120848FDF794FE6FF01500A7
:1052000003E0064BC3F8F415002008BD0871020046
:1052100008710200A8850200DC85020000E0004061
:105220004900036813B19B8903FB0111C0688842E0
:1052300001D30020704710B50A4A0B4BD21AD2088E
:105240004FF00003012464F302036FF3C50362F31C
:105250008F130A4601460548FDF79AFE6FF00B00D2
:1052600010BD00BF08710200087102000086020034
:10527000F0B583B0486830B10D4630F0FF0302D17D
:1052800000210C462FE05E4B5E4A9B1ADB084FF074
:105290000001012262F302016FF3C50163F38F1174
:1052A0005948FDF7D3FE6FF0150646E0544B554ABA
:1052B0009B1ADB084FF00002012060F302026FF33B
:1052C000C50263F38F125148FDF72CFE6FF01506EF
:1052D00033E001F151031B014D4A0026D650013144
:1052E000C9B2072924D80B4620FA01F212F0010FA7
:1052F000EFD0484A0A4492F8A820002AD6D06A7C07
:10530000161E18BF0126424F07EB011CDCF81825BA
:1053100022F0807242EA0662CCF818253D4A0A441F
:1053200092F8A82051331B01FA500134E4B2D6E7B9
:105330002846FFF7FDFE064610B1304603B0F0BD2B
:1053400021462846FFF728FF06460028F5D12146CA
:105350002846FFF765FF06460028EED1AA682C4BC9
:10536000C3F82C26C3F83046DFF8A8C00CF17C0443
:105370002F460FCF0FC43B6823600023CCF870305A
:105380002B6853B10CF190040FCB84E80F00CCF8DC
:105390007C400023ACF8A03090B91E48FFF79EFD7A
:1053A0001C4B93F87830002BC7D11A4C4FF0FF32CA
:1053B0004FF0FF3304F1580009F070FF266FBCE78F
:1053C00064460022D4E8EF3FC4E8E12F0029F9D178
:1053D0001746D4F89030590CD803DFF840C00E4A75
:1053E000002310EB0C007941FBF798FB0090019132
:1053F0003A463B4604F108000AF0F0FED0E700BF51
:105400000871020008710200288602004886020026
:1054100000E0004000C5002040420F003F420F0066
:10542000F8B505460E4617460D4C4FF0FF324FF0CB
:10543000FF3304F1400009F031FF012384F8783094
:10544000676731462846FFF713FF054694F8783022
:1054500003B110B1034809F0F9FE2846F8BD00BFBA
:1054600000C5002040C5002010B50E4B00241C6074
:105470001B680D4B1C601B680C4B1222C3F80423E5
:105480000E20FEF7EBFC224601210E20FEF704FD64
:10549000074B9B6C0BB1002010BD064809F0D6FEEF
:1054A000F9E700BF04E1004010E1004000E00040E7
:1054B00000C5002040C500203C4B1B687BB93C4B1D
:1054C0001B68002B70D03A4B00221A601B68012326
:1054D000384A1360083A136004321360704710B5FD
:1054E000324A002313601268324A01211160083ADF
:1054F000C2F80035304BDB6F23B32F4BD3F8943019
:1055000043B12D49B1F8A0207C31984701280FD034
:10551000022810D0284AB2F8A030B2F89C2093425A
:1055200018D20133244AA2F8A03000210B4604E02F
:105530000121002301E00021012373B11E4BD3F8A8
:1055400090301BBB1C4B93F878301BBB1B4809F0F9
:105550007DFE10BD00210123EFE7174C2046FFF729
:10556000D1FCD4F890301BB92046FFF7B7FCF0E728
:10557000114BD3E8EF2F511EC3E8E01F0028F8D1EC
:10558000012AE6DD1846FFF7A9FCE2E70C4811F016
:1055900061F8D7E7084B586F10B100210BF030F9D4
:1055A000084809F053FED4E7704700BF04E100400B
:1055B00010E1004008E0004000C5002058C5002070
:1055C00008C5002040C5002070B505460E460D4CAC
:1055D0004FF0FF324FF0FF3304F1400009F05EFE60
:1055E000002384F87830636731462846FFF740FE91
:1055F000054694F8783003B110B1034809F026FE4F
:10560000284670BD00C5002040C5002000487047F6
:1056100074E30020034BC01A8010034B03FB00F01F
:10562000704700BF34E30020B76DDBB638B50546E0
:105630000C46FFF7EFFF0146402203480DF057FDEF
:1056400001462846A04738BD4C6E020030B583B0F5
:1056500005460C46FFF7DEFF014640230093234634
:10566000054A06480DF05DFD011E01DB03B030BDAB
:105670002846A047FAE700BF6B3102004C6E0200DB
:1056800008B510B101280DD008BD002108480DF063
:10569000B4FC836813F0070FF6D1002104480DF025
:1056A00014FDF1E7012102480DF00FFDECE700BF0A
:1056B0004C6E020010B54FF02003EFF3118483F31A
:1056C0001288BFF36F8F134A136843F0020313600D
:1056D00013F0010F08D1002384F31188BFF36F8FFB
:1056E00093B90DF04AFD10BD0B4BD3F80C24D3F841
:1056F0000C3412F0010F01D10023EDE7FFF786FF14
:105700000DF0D0FC0123E7E7002104480DF0DDFC9B
:10571000E9E700BF84E30020005000404C6E020027
:1057200008B5084BD3E8EF2F22F00201C3E8E01FD1
:105730000028F7D112F0010F00D008BD0DF027FDB1
:10574000FBE700BF84E3002000B587B0CDF800D0B0
:10575000CDF804D0002302930123039304AB0493F8
:1057600005936B46064A0DF0F8FC002805DB4FF464
:1057700080420023684609F091FD07B05DF804FB04
:10578000A331020070B50646002201210520FEF774
:1057900083FB0520FEF762FB114805F089F8114BE9
:1057A00098421AD10FF056F9002403E00123AB60B0
:1057B0001C44E4B2012C0ED8214630460DF01DFCED
:1057C0000546214630460DF025FC07490CF0E5FA68
:1057D0000028EBDA00E0002070BD6FF00400FBE76A
:1057E000815601000000AD0BDC86020070B5054655
:1057F000012806D1324BD3F81C3403F00303022BEB
:105800003CD010F0B3FA20B92E4B1B7893B1002393
:1058100000E001231C467BB14FF02003EFF311861B
:1058200083F31288BFF36F8F94B9254B0222C3F81C
:1058300008230DE00123EDE70026F5E7FCB1304633
:10584000FEF758FA1E4BD3F81835DBB2012B1BD0EC
:105850001B4AD2F8183403F00303D2F8182412F4C8
:10586000803F25D10022002AE8D0022B01D0012D53
:10587000E4D1FCB186F31188BFF36F8F70BD212096
:1058800000210AF057FADDE70F4B1B68002BDFD031
:105890000D4B00221A601B68094B0222C3F8182521
:1058A0000A4B2022C3F88021094B01221A60CFE75E
:1058B0000122D8E7024B0222C3F80423DEE700BF2F
:1058C0000050004040FA00200451004000E100E098
:1058D0000850004010B504460E4B0121D3E8EF2FCD
:1058E000C3E8E01F0028F9D11AB1631E012B0CD9BF
:1058F00010BD09480DF08EFB084900234B60CB60BA
:1059000001238B600CF065FAEFE72046FFF76EFF8E
:10591000EEE700BF88E300204C6E020024E3002085
:1059200010B504460A2807D0074B1868E1B283680F
:105930005B689847204610BD034B186883685B6816
:105940000D219847F0E700BF8CE3002010B5044C10
:105950002046FFF7F7F92046FBF760FE10BD00BFB9
:105960002159010008B50648064B186010F019F9D6
:1059700018B1FFF7EBFF002008BD6FF01200FBE746
:10598000946E02008CE300201F4B03401F4A934299
:1059900032D016D8062B2BD006D9B3F5801F0DD1E7
:1059A00001230B7000207047FBB1022B03D10423AD
:1059B0000B70002070476FF0150070476FF01500F6
:1059C0007047134A93421BD0B3F5A00F03D10323B2
:1059D0000B7000207047B3F5800F03D102230B70CA
:1059E000002070476FF01500704700200870704766
:1059F00006230B700020704707230B7000207047B0
:105A000005230B70002070470600F0000600100010
:105A10000200400008B9024870470020704700BFEC
:105A2000646E0200F0B585B00E46194643681B7BD4
:105A300006F01F0545EA4315B2F5005F22D0074680
:105A4000144600230293039310460DF0DBFB8DF800
:105A500008007B689968F14011F0010F02D1B4F59C
:105A6000A03F14D0002302AA1946284605F0F4F9F5
:105A7000184B98422AD10121284605F0B9FB002095
:105A800005B0F0BD284605F00BFC0020F8E705F056
:105A90001F038033104A52F8233013F0010FE1D175
:105AA0000DF10701284605F047FB0C4B984203D047
:105AB0000DF107030393D5E70DF1070005F090FB07
:105AC000044B9842F4D06FF00B00D9E76FF004005C
